{
  "_format": "hh-sol-artifact-1",
  "contractName": "TxHashStore",
  "sourceName": "contracts/TxHashStore.sol",
  "abi": [
    {
      "anonymous": false,
      "inputs": [
        {
          "indexed": true,
          "internalType": "bytes32",
          "name": "hash",
          "type": "bytes32"
        },
        {
          "indexed": true,
          "internalType": "address",
          "name": "sender",
          "type": "address"
        }
      ],
      "name": "HashRecorded",
      "type": "event"
    },
    {
      "inputs": [],
      "name": "getCount",
      "outputs": [
        {
          "internalType": "uint256",
          "name": "",
          "type": "uint256"
        }
      ],
      "stateMutability": "view",
      "type": "function"
    },
    {
      "inputs": [
        {
          "internalType": "uint256",
          "name": "index",
          "type": "uint256"
        }
      ],
      "name": "getHash",
      "outputs": [
        {
          "internalType": "bytes32",
          "name": "",
          "type": "bytes32"
        }
      ],
      "stateMutability": "view",
      "type": "function"
    },
    {
      "inputs": [
        {
          "internalType": "bytes32",
          "name": "hash",
          "type": "bytes32"
        }
      ],
      "name": "record",
      "outputs": [],
      "stateMutability": "nonpayable",
      "type": "function"
    }
  ],
  "bytecode": "0x608060405234801561001057600080fd5b506102d7806100206000396000f3fe608060405234801561001057600080fd5b50600436106100415760003560e01c80636b2fafa914610046578063a87d942c14610076578063b5c645bd14610094575b600080fd5b610060600480360381019061005b919061018e565b6100b0565b60405161006d91906101d4565b60405180910390f35b61007e6100d7565b60405161008b91906101fe565b60405180910390f35b6100ae60048036038101906100a99190610245565b6100e3565b005b60008082815481106100c5576100c4610272565b5b90600052602060002001549050919050565b60008080549050905090565b60008190806001815401808255809150506001900390600052602060002001600090919091909150553373ffffffffffffffffffffffffffffffffffffffff16817fdf45777f4cfff4c462017cdbd5672e1db1c66d3ada611bdb36ecdbaca7714dfa60405160405180910390a350565b600080fd5b6000819050919050565b61016b81610158565b811461017657600080fd5b50565b60008135905061018881610162565b92915050565b6000602082840312156101a4576101a3610153565b5b60006101b284828501610179565b91505092915050565b6000819050919050565b6101ce816101bb565b82525050565b60006020820190506101e960008301846101c5565b92915050565b6101f881610158565b82525050565b600060208201905061021360008301846101ef565b92915050565b610222816101bb565b811461022d57600080fd5b50565b60008135905061023f81610219565b92915050565b60006020828403121561025b5761025a610153565b5b600061026984828501610230565b91505092915050565b7f4e487b7100000000000000000000000000000000000000000000000000000000600052603260045260246000fdfea264697066735822122061b20ed7dc4b320aec8d2b19aa2b08aab3c28a20bbf273ecf37ac7f937a1343d64736f6c63430008140033",
  "linkReferences": {},
  "deployedLinkReferences": {}
}